:020000040800F2
:10000000C0270020ED010008F5010008F7010008F5
:10001000F9010008FB010008FD01000800000000D4
:10002000000000000000000000000000FF010008C8
:100030000102000800000000030200080502000899
:10004000070200080702000807020008070200086C
:10005000070200080702000807020008070200085C
:10006000070200080702000807020008070200084C
:10007000070200080702000807020008070200083C
:10008000070200080000000007020008070200083D
:10009000070200080702000807020008070200081C
:1000A000070200080702000807020008070200080C
:1000B00007020008070200080702000807020008FC
:1000C00007020008070200080702000807020008EC
:1000D00007020008070200080702000807020008DC
:1000E00007020008070200080702000807020008CC
:1000F00007020008070200080702000800000000CD
:1001000000000000070200080000000007020008CD
:1001100007020008000000000702000807020008AC
:10012000070200080702000807020008070200088B
:10013000070200080000000000000000070200089D
:10014000070200080702000800000000000000008D
:10015000000000000000000000000000000000009F
:10016000000000000000000000000000070200087E
:10017000070200080000000000000000000000006E
:10018000000000000702000800000000000000005E
:10019000000000000000000000000000000000005F
:1001A000000000000000000007020008070200082D
:1001B000070200080702000807020008000000000C
:1001C000000000000702000800000000000000001E
:1001D0000702000807020008DFF80CD000F018FA48
:1001E00000480047B1280008C02700200648804783
:1001F00006480047FEE7FEE7FEE7FEE7FEE7FEE70C
:10020000FEE7FEE7FEE7FEE7111B0008D901000844
:1002100030B50B46014600202022012409E021FAD6
:1002200002F59D4205D303FA02F5491B04FA02F5D3
:100230002844151EA2F10102F1DC30BD2DE9F05F6A
:100240000546002092469B46884606468146402445
:100250001BE0284641464746224600F0FAF953463D
:100260005A46C01A914110D311461846224600F052
:10027000E1F92D1A67EB01084F46224601200021C3
:1002800000F0D8F917EB00094E41201EA4F101043B
:10029000DFDC484631462A464346BDE8F09F2DE95B
:1002A000FE4F804681EA0300C00F0C46009021F00B
:1002B000004123F00045B8EB0200A94105D24046B9
:1002C000214690461C460B46024623F00040104350
:1002D00047D0270DC7F30A00C3F30A510290401A12
:1002E000019040286BDAC3F3130040F4801B0098A0
:1002F000924620B10023D2EB030A63EB0B0B01986B
:100300005946C0F14002504600F094F906460D46A9
:1003100050465946019A00F0ACF910EB08006141D3
:10032000002487EA115284EAE7731A4340D0009A06
:1003300062B3019A012A4FEA075215DC001B61EBF8
:1003400002014FF0004202EA0752CDE90042001CD0
:1003500041F5801132462B4600F0ACF903B0BDE800
:10036000F08F40462146F9E7001B61EB0201001CBB
:1003700041F5801300185B412018A2F5001747EBE8
:10038000030140EAD570B6196D4111E06D084FEADE
:10039000360645EAC0754FEA0752001B61EB0201C1
:1003A000001C41F5801149084FEA30000019514105
:1003B00032462B4603B0BDE8F04F00F06CB9009810
:1003C000012240000023D0EB020263EBE0730098AF
:1003D00021464FEAE074B8EB000061EB0401E9E765
:1003E00083F000435BE781F0004158E72DE9FE4FC1
:1003F00081EA030404F0004421F0004100944FF02E
:10040000000B23F0004350EA01045ED052EA0304DB
:100410005BD0C3F30A54C1F30A552C44A4F2F3345D
:100420000194A0FB0254C1F3130141F48011C3F302
:10043000130343F4801301FB024400FB034E840AC0
:10044000970A44EA815447EA8357A4FB0768029558
:100450008D0A05FB07854FEA932C04FB0C542705F6
:10046000029D4FEA065847EA1637B5EB08056EEBD2
:10047000070C870E920E47EA811742EA8312A7FB08
:100480000201B6EB0B0164EB00042B0D43EA0C33C5
:100490005E1844EB1C50DA465146E7FB0201C5F3F7
:1004A00013044FEA0B3343EA14534FEA0432019C1E
:1004B00043EA0603A4F10C040294009CCDE900B4C5
:1004C00000F0F8F803B0BDE8F08F00200146F9E72E
:1004D0002DE9F04D81EA030404F0004B21F00045C2
:1004E00014464FF0000A23F0004150EA050220D0E4
:1004F00054EA01021DD0C5F30A570246C5F313039F
:10050000C1F31300C1F30A5640F4801543F480137D
:10051000A7EB0608101BD64608F2FD3873EB050062
:1005200002D308F1010801E092185B41B8F1000F15
:1005300003DA00200146BDE8F08D00204FF4801161
:10054000064684460EE0171B73EB050705D3121B06
:1005500063EB050306434CEA010C49084FEA3000FF
:1005600092185B4150EA0107EDD152EA030012D024
:1005700082EA040083EA0501084305D0101BAB4161
:1005800006D20122002306E000224FF0004302E0E1
:100590006FF0010253101AEB06004CEB085110EB00
:1005A0000A0041EB0B01BDE8F04D00F074B8C1F357
:1005B0000A52C1F3130140F2FF3341F480119A4211
:1005C00002DA00200146704740F233439A42A2F219
:1005D000334202DC524200F03CB800F02BB800007D
:1005E00030B5041E71F1000404DB4FF000444042BA
:1005F00064EB0101141E73F1000405DB1C464FF08F
:100600000043524263EB0403994208BF904230BD5D
:10061000064C074D06E0E06840F0010394E807004F
:1006200098471034AC42F6D3FFF7DAFDC0740008E7
:10063000E0740008202A04DB203A00FA02F10020CE
:1006400070479140C2F1200320FA03F31943904010
:100650007047202A04DB203A21FA02F0002170477B
:1006600021FA02F3D040C2F120029140084319461A
:100670007047202A06DBCB17203A41FA02F043EA02
:10068000E07306E041FA02F3D040C2F1200291404B
:1006900008431946704710B5141E73F1000408DAB8
:1006A000401C41F1000192185B411A4301D120F036
:1006B000010010BD2DE9F04D92469B4611B1B1FAF3
:1006C00081F202E0B0FA80F220329046FFF7B2FFEA
:1006D00004460F4640EA0A0041EA0B0153465A46D7
:1006E000084313D0114653EA010019D0C8F1400263
:1006F0005046FFF7AEFF05460E4650465946424665
:10070000FFF798FF084305D0012004E02046394652
:10071000BDE8F08D0020054346EAE0762C433743E0
:100720000A986305E40AA0EB08000022FD0A44EAE7
:1007300047540A3002D500200146E9E701051019A7
:100740006941DDE9084500196941BDE8F04DA2E7BE
:10075000D2B201E000F8012B491EFBD27047002203
:10076000F6E710B513460A4604461946FFF7F0FFB0
:10077000204610BD00F0004230F000400AD0C10D0C
:1007800001F56071C0F3160042EA0151C20840074A
:10079000114370470020014670470000F0B581B05A
:1007A00041F26005C4F2020555F8182C1C2142F0F4
:1007B0000102C4F2020145F8182C0A6822F0010275
:1007C0000A6000BF0A68D2071CBF0A685FEAC272EB
:1007D00005D00A68D20702D00A68D207F2D151F8D0
:1007E000182C0C24C5F2000442F0F00241F8182C39
:1007F00004F134028A6040F24802C2F20002CA6088
:1008000000224A600A600A680A600A680A600A6888
:100810000A600A6842F080020A600A6842F4807244
:100820000A600A6842F480620A600A6842F48052F0
:100830000A60D1F8E82742F00502C1F8E82755F828
:10084000182C42F0010245F8182C4A6922F00102E6
:100850004A614A69D20709D04A69D2071CBF4A696E
:100860005FEAC27202D04A69D207F2D151F8182C5D
:1008700042F4706241F8182C04F59A72CA6140F68D
:10088000A812C2F200020A6200228A614A614A6921
:100890004A614A694A614A694A614A6942F080028A
:1008A0004A614A6942F480724A614A6942F480624C
:1008B0004A614A6942F480524A6140F60801C4F232
:1008C00002010A6842F024020A60296841F40061CA
:1008D00029602968090509D4296809055CBF2968C8
:1008E0005FEA015102D429680905F2D546F6802154
:1008F000C0F6000131F8202001EB8001498842F662
:100900000040013AC4F201000139C262816201680B
:10091000002721F44071016001684EF2100621F0B9
:100920008001016007638169002341F060018161FA
:100930004263016ACEF2000641F00F010162816953
:1009400041F4C04181618263016A032241F0F001F8
:100950000162416C41F400414164016841F00101D0
:10096000016055F8140C032140F4005045F8140CB4
:10097000A86A40F00050A8624FF09040009700F045
:1009800035F955F8340C40F4005045F8340C55F85E
:10099000340C20F4005045F8340CD4F8FC0240F438
:1009A0008020C4F8FC02D4F8FC02C4F8FC024FF02A
:1009B000A040016841F00101016044F8047C54F852
:1009C000040C40F0805044F8040CD4F8F40040F0DB
:1009D0000100C4F8F400C4F8FC70D4F8FC0040F046
:1009E0008050C4F8FC0041F6D820C2F20000007824
:1009F000002818BF4FF4FA607060B760306840F0AC
:100A000001003060306800F0011001280ED130681C
:100A100000F00110012809D1306800F00110012810
:100A200004D1306800F001100128EBD0306820F0CC
:100A3000010030600020B0602060216821602168E2
:100A400021F400512160216821F4004121602168D6
:100A500041F48061216021682160216841F4805166
:100A60002160216841F000412160216841F00201CC
:100A70002160216841F001012160A0606062606A2C
:100A800040F040006062A068A06054F8040C40F0A0
:100A9000004044F8040C00BF54F8040CB0F1FF3FD0
:100AA0000CDD54F8040C002808D454F8040C002879
:100AB00004D454F8040CB0F1FF3FEDDC54F8040CFE
:100AC00040F0010044F8040C4FF0A0400168C90751
:100AD00004BF01685FEAC17105D10168C90702D18D
:100AE0000168C907F2D04FF0A040016841F0010150
:100AF00001600020C4F80001D4F80011C4F800110E
:100B0000D4F8001121F40051C4F80011D4F80011F8
:100B100021F40041C4F80011D4F8001141F48061BF
:100B2000C4F80011D4F8001141F02001C4F80011FC
:100B3000D4F8001141F48051C4F80011D4F8001128
:100B400041F00041C4F80011D4F8001141F0020155
:100B5000C4F80011D4F8001141F00101C4F80011EB
:100B6000C4F80801C4F82401D4F8240140F080003E
:100B7000C4F82401D4F80801C4F80801D4F8FC0032
:100B800040F00040C4F8FC00D4F8FC00B0F1FF3F96
:100B90000CDDD4F8FC00002808D4D4F8FC000028B0
:100BA00004D4D4F8FC00B0F1FF3FEDDCD4F8FC0035
:100BB00040F00100C4F8FC00D4F8F400C0070CD1E8
:100BC000D4F8F400C00704BFD4F8F4005FEAC070A2
:100BD00003D1D4F8F400C007EED0D4F8F40040F00C
:100BE0000100C4F8F40001B0F0BD00002DE9F04FA1
:100BF000DDF824C0571E0026022F80F0C1804FF080
:100C0000060E4FF001094FF0030806E00136102EE2
:100C10000EF1080E08BFBDE8F08F09FA06F70F4283
:100C200028D0AEF10605D0F800A008FA05FB2AEAA4
:100C30000B040460D0F800A002FA05F444EA0A04A8
:100C40000460846824EA0B048460D0F808A003FAE6
:100C500005F444EA0A04846044680CFA05F5BC43D0
:100C6000446044684460C46824EA0B04C460C468F7
:100C70002C43C460013609FA06F70F4228D0AEF1C2
:100C80000404D0F800A008FA04FB2AEA0B0505606A
:100C9000D0F800A002FA04F545EA0A050560856867
:100CA00025EA0B058560D0F808A003FA04F545EAAB
:100CB0000A05856045680CFA04F4BD434560456843
:100CC0004560C56825EA0B05C560C5682C43C4604E
:100CD000013609FA06F70F4228D0AEF10204D0F827
:100CE00000A008FA04FB2AEA0B050560D0F800A072
:100CF00002FA04F545EA0A050560856825EA0B0550
:100D00008560D0F808A003FA04F545EA0A05856075
:100D100045680CFA04F4BD43456045684560C56804
:100D200025EA0B05C560C5682C43C460013609FA85
:100D300006F70F423FF46AAF046808FA0EF5AC43B9
:100D40000460D0F800A002FA0EF444EA0A04046039
:100D50008468AC438460D0F808A003FA0EF444EA37
:100D60000A0484604468BC43446044684460C468C6
:100D7000AC43C460C4680CFA0EF52C43C46045E76C
:100D800006234FF0030E04E00136102E03F1080392
:100D900064D021FA06F7FF0714D09F1F04680EFAEB
:100DA00007F5AC430460D0F8008002FA07F444EA87
:100DB00008040460C468AC43C460C4680CFA07F556
:100DC0002C43C460013621FA06F4E40714D01C1F3A
:100DD00005680EFA04F7BD430560D0F8008002FAFA
:100DE00004F545EA08050560C5680CFA04F4BD433E
:100DF000C560C5682C43C460013621FA06F4E407D7
:100E000014D09C1E05680EFA04F7BD430560D0F8A7
:100E1000008002FA04F545EA08050560C5680CFA89
:100E200004F4BD43C560C5682C43C460013621FA93
:100E300006F4E407A8D004680EFA03F5AC43046096
:100E4000046802FA03F73C430460C468AC43C4601E
:100E5000C4680CFA03F52C43C46095E7BDE8F08F35
:100E600010B540F2184CC4F6000CDCF8004043F218
:100E7000080E44F48014C4F2010ECCF800402A2479
:100E80008EF80440DEF8004014F4C06F0ED1DEF896
:100E9000004014F4C06F09D1DEF8004014F4C06FB4
:100EA00004D1DEF8004014F4C06FEBD0DEF800404F
:100EB00044F06004CEF80040DCF8004044F0100438
:100EC000CCF80040040A8EF8044000BFDEF8004071
:100ED00014F4C06F0ED1DEF8004014F4C06F09D1D5
:100EE000DEF8004014F4C06F04D1DEF8004014F4C2
:100EF000C06FEBD0DEF8004044F06004CEF8004054
:100F00008EF80400DEF8000010F4C06F0ED1DEF899
:100F1000000010F4C06F09D1DEF8000010F4C06FBB
:100F200004D1DEF8000010F4C06FEBD0DEF8000052
:100F300040F06000CEF80000100A8EF8040000BFF8
:100F4000DEF8000010F4C06F0ED1DEF8000010F4DF
:100F5000C06F09D1DEF8000010F4C06F04D1DEF8D4
:100F6000000010F4C06FEBD0DEF8000040F060002D
:100F7000CEF800008EF80420DEF8000010F4C06FF8
:100F80000ED1DEF8000010F4C06F09D1DEF80000C9
:100F900010F4C06F04D1DEF8000010F4C06FEBD085
:100FA000DEF8000040F06000CEF80000DCF8000041
:100FB00040F48010CCF800002B208EF8040000BF15
:100FC000DEF8000010F4C06F0ED1DEF8000010F45F
:100FD000C06F09D1DEF8000010F4C06F04D1DEF854
:100FE000000010F4C06FEBD0DEF8000040F06000AD
:100FF000CEF80000DCF8000040F01000CCF8000053
:1010000001F12200010A8EF8041000BFDEF8001082
:1010100011F4C06F0ED1DEF8001011F4C06F09D1C9
:10102000DEF8001011F4C06F04D1DEF8001011F4E6
:10103000C06FEBD0DEF8001041F06001CEF8001078
:101040008EF80400DEF8000010F4C06F0ED1DEF858
:10105000000010F4C06F09D1DEF8000010F4C06F7A
:1010600004D1DEF8000010F4C06FEBD0DEF8000011
:1010700040F06000CEF8000003F12200010A8EF873
:10108000041000BFDEF8001011F4C06F0ED1DEF8BE
:10109000001011F4C06F09D1DEF8001011F4C06F18
:1010A00004D1DEF8001011F4C06FEBD0DEF80010B0
:1010B00041F06001CEF800108EF80400DEF8000068
:1010C00010F4C06F0ED1DEF8000010F4C06F09D12B
:1010D000DEF8000010F4C06F04D1DEF8000010F458
:1010E000C06FEBD0DEF8000040F06000CEF80000EA
:1010F000DCF8000040F48010CCF800002C208EF8C2
:10110000040000BFDEF8000010F4C06F0ED1DEF85E
:10111000000010F4C06F09D1DEF8000010F4C06FB9
:1011200004D1DEF8000010F4C06FEBD0DEF8000050
:1011300040F06000CEF80000DCF8000040F0100045
:10114000CCF8000010BD00002DE9F04F81B08B46B7
:10115000054605300B3199460B9C43F20807A2F176
:10116000200682B28BB228465946C4F20107FFF727
:1011700077FE46F6C023F2B2002CC0F6000300F062
:10118000F1814FEA1920009002EB4200002403EBAA
:10119000800A2E461AF804805FEAC87032D0B0B2D6
:1011A0001FFA8BF102460B46FFF75AFE0098387182
:1011B000386810F4C06F0BD1386810F4C06F07D1D5
:1011C000386810F4C06F03D1386810F4C06FEFD0E6
:1011D000386840F06000386087F80490386810F490
:1011E000C06F0BD1386810F4C06F07D1386810F4A5
:1011F000C06F03D1386810F4C06FEFD0386840F08A
:1012000060003860701C80B2411B062900F0A0818C
:101210005FEA887132D51FFA8BF102460B46FFF761
:101220001FFE0098387100BF386810F4C06F0BD1F2
:10123000386810F4C06F07D1386810F4C06F03D15C
:10124000386810F4C06FEFD0386840F06000386044
:1012500087F80490386810F4C06F0BD1386810F428
:10126000C06F07D1386810F4C06F03D1386810F42C
:10127000C06FEFD0386840F060003860B01C80B2BA
:10128000411B062900F064815FEA487132D51FFADC
:101290008BF102460B46FFF7E3FD0098387100BF63
:1012A000386810F4C06F0BD1386810F4C06F07D1E4
:1012B000386810F4C06F03D1386810F4C06FEFD0F5
:1012C000386840F06000386087F80490386810F49F
:1012D000C06F0BD1386810F4C06F07D1386810F4B4
:1012E000C06F03D1386810F4C06FEFD0386840F099
:1012F00060003860F01C80B2411B062900F0288194
:101300005FEA087132D51FFA8BF102460B46FFF7F0
:10131000A7FD0098387100BF386810F4C06F0BD17A
:10132000386810F4C06F07D1386810F4C06F03D16B
:10133000386810F4C06FEFD0386840F06000386053
:1013400087F80490386810F4C06F0BD1386810F437
:10135000C06F07D1386810F4C06F03D1386810F43B
:10136000C06FEFD0386840F060003860301D80B248
:10137000411B062900F0EC805FEAC86132D51FFAF4
:101380008BF102460B46FFF76BFD0098387100BFEA
:10139000386810F4C06F0BD1386810F4C06F07D1F3
:1013A000386810F4C06F03D1386810F4C06FEFD004
:1013B000386840F06000386087F80490386810F4AE
:1013C000C06F0BD1386810F4C06F07D1386810F4C3
:1013D000C06F03D1386810F4C06FEFD0386840F0A8
:1013E00060003860701D80B2411B062900F0B0809B
:1013F0005FEA886132D51FFA8BF102460B46FFF790
:101400002FFD0098387100BF386810F4C06F0BD101
:10141000386810F4C06F07D1386810F4C06F03D17A
:10142000386810F4C06FEFD0386840F06000386062
:1014300087F80490386810F4C06F0BD1386810F446
:10144000C06F07D1386810F4C06F03D1386810F44A
:10145000C06FEFD0386840F060003860B01D80B2D7
:10146000411B062974D05FEA486131D51FFA8BF120
:1014700002460B46FFF7F4FC00983871386810F408
:10148000C06F0BD1386810F4C06F07D1386810F402
:10149000C06F03D1386810F4C06FEFD0386840F0E7
:1014A0006000386087F80490386810F4C06F0BD182
:1014B000386810F4C06F07D1386810F4C06F03D1DA
:1014C000386810F4C06FEFD0386840F060003860C2
:1014D000F01D80B2411B06293AD05FEA086131D580
:1014E0001FFA8BF102460B46FFF7BAFC00983871E1
:1014F000386810F4C06F0BD1386810F4C06F07D192
:10150000386810F4C06F03D1386810F4C06FEFD0A2
:10151000386840F06000386087F80490386810F44C
:10152000C06F0BD1386810F4C06F07D1386810F461
:10153000C06F03D1386810F4C06FEFD0386840F046
:10154000600038600836B0B2401B062803D100BFE7
:101550000BF1010B2E4601340C2C7FF41BAE01B0B5
:10156000BDE8F08F0A9802EB4202002103EB8202F1
:1015700007E000BF3B68013143F060030C293B608A
:10158000EDD0535CDE074E4608BF0646350A3D7176
:101590003D6815F4C06F0BD13D6815F4C06F07D1DD
:1015A0003D6815F4C06F03D13D6815F4C06FEFD0EE
:1015B0003D6845F060053D603E7100BF3E6816F431
:1015C000C06F0BD13E6816F4C06F07D13E6816F4A9
:1015D000C06F03D13E6816F4C06FEFD03E6846F08E
:1015E00060063E609E074E4658BF0646350A3D716E
:1015F0003D6815F4C06F0BD13D6815F4C06F07D17D
:101600003D6815F4C06F03D13D6815F4C06FEFD08D
:101610003D6845F060053D603E7100BF3E6816F4D0
:10162000C06F0BD13E6816F4C06F07D13E6816F448
:10163000C06F03D13E6816F4C06FEFD03E6846F02D
:1016400060063E605E074E4658BF0646350A3D714D
:101650003D6815F4C06F0BD13D6815F4C06F07D11C
:101660003D6815F4C06F03D13D6815F4C06FEFD02D
:101670003D6845F060053D603E7100BF3E6816F470
:10168000C06F0BD13E6816F4C06F07D13E6816F4E8
:10169000C06F03D13E6816F4C06FEFD03E6846F0CD
:1016A00060063E601E074E4658BF0646350A3D712D
:1016B0003D6815F4C06F0BD13D6815F4C06F07D1BC
:1016C0003D6815F4C06F03D13D6815F4C06FEFD0CD
:1016D0003D6845F060053D603E7100BF3E6816F410
:1016E000C06F0BD13E6816F4C06F07D13E6816F488
:1016F000C06F03D13E6816F4C06FEFD03E6846F06D
:1017000060063E60DE064E4658BF0646350A3D710D
:101710003D6815F4C06F0BD13D6815F4C06F07D15B
:101720003D6815F4C06F03D13D6815F4C06FEFD06C
:101730003D6845F060053D603E7100BF3E6816F4AF
:10174000C06F0BD13E6816F4C06F07D13E6816F427
:10175000C06F03D13E6816F4C06FEFD03E689B06A1
:1017600046F060064B463E6058BF03461E0A3E7177
:101770003E6816F4C06F0BD13E6816F4C06F07D1F7
:101780003E6816F4C06F03D13E6816F4C06FEFD008
:101790003E6846F060063E603B7100BF3B6813F454
:1017A000C06F7FF4E7AE3B6813F4C06F7FF4E2AE26
:1017B0003B6813F4C06F7FF4DDAE3B6813F4C06F79
:1017C000ECD0D7E6B0B541F2600CC4F2020C5CF884
:1017D000204C4EF2100544F4C0244CF8204C41F645
:1017E000D824C2F2000494F800E0CEF200050024F0
:1017F000BEF1000F1CBF40F6405EC0F2030EC5F8FC
:1018000004E0AC602C6844F001042C602C6804F007
:101810000114012C0ED12C6804F00114012C09D103
:101820002C6804F00114012C04D12C6804F001147C
:10183000012CEBD02C684FF0904E24F001042C606A
:101840000024AC605CF8205C0028A5F5C0254CF8AD
:10185000205C5CF8145C45F001054CF8145CDEF883
:10186000004024F44054CEF80040DEF8004044F438
:101870000054CEF8004040F20404C4F60004656849
:1018800025F440556560656845F4405565602568F8
:1018900025F04005256025682560A56825F440559C
:1018A000A560A56845F48055A560E56925F07065DB
:1018B000E561E56945F08075E561DEF8005025F4E5
:1018C0004045CEF80050DEF8005045F40045CEF813
:1018D0000050656844F2004E25F440456560656837
:1018E000C4F2010E45F440456560256825F0800589
:1018F000256025682560A56825F44045A560A56894
:1019000045F48045A560E56925F07045E561E56928
:1019100045F08055E56146F6DC74C0F600044ED013
:10192000DCF8005045F40035CCF80050DCF80050ED
:10193000AD035CBFDCF800505FEA853507D4DCF806
:101940000050AD0303D4DCF80050AD03EED534F8FD
:10195000205004EB80004088013D0138CEF82C5027
:10196000CEF82800DEF8000040F08000CEF800003D
:10197000DEF8180040F06000CEF81800DEF818001D
:1019800040F00C00CEF818005000CEF83400DEF81D
:10199000140040F00100CEF81400DEF8200040F002
:1019A0000100CEF82000DEF8440040F40040CEF8FC
:1019B0004400DEF8000040F00100CEF800000029ED
:1019C00008BFB0BDDCF8000040F48020CCF8000077
:1019D000DCF8000040035CBFDCF800005FEA403048
:1019E00007D4DCF80000400303D4DCF80000400317
:1019F000EED534F8210004EB810144F61802498841
:101A00000138C4F201025061481E1061DEF8000482
:101A100040F08000CEF80004106840F060001060D4
:101A2000106840F00C001060D36152F8040C40F0D4
:101A3000010042F8040C906840F005009060D06A04
:101A400040F40040D062DEF8000440F00100CEF81F
:101A50000004B0BD43F20000C4F20100016821F0AF
:101A600040010160416841F00201416002680821C3
:101A700042F04002C4F2020102600A6822F0010250
:101A80000A6000BF0A68D2071CBF0A685FEAC27218
:101A900005D00A68D20702D00A68D207F2D14FF403
:101AA00057424A6041F6DA22C2F20002CA600A686E
:101AB00022F080020A600A6842F480620A600A68C2
:101AC00042F001020A6051F8082CD2070CD151F8FB
:101AD000082CD20704BF51F8082C5FEAC27203D168
:101AE00051F8082CD207EED051F8042C42F007022E
:101AF00041F8042C016821F040010160416821F0A7
:101B000002014160016841F040010160704700003E
:101B10004EF68850CEF20000016841F47001016079
:101B2000704700002DE9F04F85B041F20005C4F286
:101B30000005286840F2440A20F001002860D5F82A
:101B40000004C4F2020A20F00100C5F80004DAF82B
:101B5000000041F2000420F00100C5F20004CAF8C0
:101B60000000216840F2000821F001012160C2F26A
:101B7000000898F8041098F8082046F6C673C0F6D6
:101B8000000333F8122033F8111041F25800C4F268
:101B90000200A8F80620A8F8021050F80C1C41F426
:101BA000802140F80C1C50F8101C41F0010140F855
:101BB000101CDAF8001021F00101CAF80010DAF860
:101BC0000010C9070CD0DAF80010C9071CBFDAF8FA
:101BD00000105FEAC17103D0DAF80010C907EED136
:101BE0005AF8401C002341F470414AF8401C04F1AB
:101BF0000801CAF80810D8F80C10CAF80C10CAF876
:101C00000430CAF80030DAF8001041F01001CAF8C8
:101C10000010DAF8001041F02001CAF80010DAF8DC
:101C20000010CAF80010DAF8001041F08001CAF87C
:101C30000010DAF8001041F40071CAF80010DAF868
:101C4000001041F40061CAF80010DAF8001041F405
:101C50000051CAF8001040F60C01C4F202010A68F3
:101C600042F066020A6098F8001050F8202C42F00A
:101C7000300240F8202C41F6D822C2F20002167839
:101C80004EF21002CEF20002002E1CBF40F640566B
:101C9000C0F2030656609360136843F001031360BB
:101CA000136803F00113012B0ED1136803F0011325
:101CB000012B09D1136803F00113012B04D1136820
:101CC00003F00113012BEBD0136823F00103136021
:101CD0000023936050F8202C303A40F8202C50F824
:101CE0000C2C42F0010240F80C2C026842F0100269
:101CF000026000BF0268D2065CBF02685FEAC2628F
:101D000005D40268D20602D40268D206F2D546F69D
:101D10008E72C0F6000232F8213002EB8101498850
:101D20005A1E0139EA62A962696941F001016961DB
:101D3000296841F004012960296841F08001296087
:101D4000696841F020016960016841F0200101608B
:101D50000168890609D4016889065CBF01685FEAE9
:101D6000816102D401688906F2D541F20441C4F2CE
:101D7000000109228A6203224A620A69002642F0AF
:101D800001020A61D5F80024002342F00402C5F8DC
:101D90000024D5F8002442F08002C5F800240A6827
:101DA00042F020020A6050F80C1C032241F00301AB
:101DB00040F80C1C4FF0904004210096FEF716FFEF
:101DC00040F20030C4F20100016841F0800101607E
:101DD000016841F060010160016841F00C0101609F
:101DE000816941F006018161816941F001018161F0
:101DF000016841F001010160816841F0800181606A
:101E0000816841F060018160816841F00C0181606E
:101E1000016A41F006010162016A41F001010162BB
:101E2000816841F001018160206840F0020020607B
:101E3000206840F01C002060206840F48050206042
:101E4000E06B40F40040E063E06B40F00300E063CF
:101E5000E06B40F44030E06398F80900002800F09F
:101E6000D68398F8011046F67C72C0F6000232F86C
:101E7000111001380528049100F299830FF20C012A
:101E8000049C01EB800165088F4600BF00F00AB892
:101E900000F020B800F033B800F056B800F05EB89B
:101EA00000F07AB847F6FF70B0FBF4F70025B8F8F9
:101EB0000610B8F802E0601E47F21C0BC7F6FF756B
:101EC00004F003020328C0F6000B029272D200262F
:101ED0000A4609E1002D00F03882B8F80600B8F88B
:101EE0000210014440F6FF70814238BF0846691E67
:101EF000032905F0030180F02A82002238E2B8F8B5
:101F00000600B8F8023040F6FF72C11A914203EBA6
:101F10000008A8BF1146904528BF9046002D00F04C
:101F200046835B00934238BF1A4692B2B2FBF5F289
:101F300021EAE179691E032905F00300CDE90205D4
:101F400080F05082002699E2B8F80600611E03294D
:101F500004F0030180F05381002261E1B8F806002B
:101F6000B8F8021040F6FF77421ABA424FEA410031
:101F7000A8BF3A46B84240F6FF7038BF480080B26A
:101F8000B0FBF4F022EAE271621E032A04F0030CB3
:101F900080F06781002390E1621EB8F80600032AF2
:101FA00041F2083204F00301C2F2000280F0B18174
:101FB0000023BBE141F20836C2F20006A01AA6F1E6
:101FC0001004002640F6FF7C0A46039007FB06F843
:101FD000C8F388194FF4F04000EA482390463BF9D3
:101FE00019200BEB4901C3F50040B1F90210504331
:101FF000284011FB030040006FF0010909EA20406E
:1020000000FB0EF008EBE0306045A8BF604620EA18
:10201000E07044F8100F701C7843C0F388114FF43F
:10202000FC4202EA40200BEB41023BF91110C0F5E3
:102030000043B2F902205943294012FB001040002E
:1020400009EA204000FB0EF008EBE0306045A8BF35
:10205000604620EAE0706060B01C7843C0F38811ED
:102060004FF4F84202EA40200BEB41023BF9111019
:10207000C0F50043B2F902205943294012FB001079
:10208000400009EA204000FB0EF008EBE03060451C
:10209000A8BF604620EAE070A060F01C7843C0F35F
:1020A00088114FF4FC4202EA40203BF91120C0F5B0
:1020B00000430BEB41015A43B1F902102A4011FBD6
:1020C0000020400009EA204000FB0EF008EBE03061
:1020D0006045A8BF604603990436424620EAE07096
:1020E000B142E0607FF472AF0298002800F05F8296
:1020F00007FB06F19046C1F388124FF4FC4303EA54
:1021000041210BEB42033BF91220C1F50044B3F926
:10211000023062432A4013FB012149006FF001099C
:1021200009EA214101FB0EF1424608EBE13140F69C
:10213000FF74A142A8BF214641F2083221EAE171B1
:10214000C2F20002012842F8261000F0308206F1A7
:10215000010C07FB0CF24FF4FC41C2F3881001EABA
:1021600042220BEB40033BF91000C2F50041B3F9EA
:1021700002304843284013FB0200400009EA204097
:1021800000FB0EF008EBE030A042B8BF0446029915
:1021900024EAE470022941F2083141F20834C2F223
:1021A0000001C2F2000441F82C0000F00082B01CD3
:1021B00007FB00F1C1F388124FF4FC4303EA41210D
:1021C0000BEB42033BF91220C1F50047B3F9023093
:1021D0007A432A4013FB012149006FF0010202EA11
:1021E000214101FB0EF108EBE13140F6FF72914213
:1021F000B8BF0A4622EAE27144F82010D7E141F262
:102200000832C2F20002631AA2F11006002200BFD7
:10221000043246F8100F9342C6E90100F060F7D18E
:1022200069B141F20833C2F20003012943F82200E8
:1022300005D003EB82020229506018BF9060B8F805
:102240000210084440F6FF71884238BF014641F24F
:102250000830C2F2000000EB8502516040F8251002
:10226000A5E141F20833C2F20003A4EB0C0EA3F186
:102270001004002303FB001543F00102BD4228BFF8
:102280003D4602FB001244F8105F43F0020505FBD7
:10229000001543F00306BA4206FB001628BF3A4673
:1022A000BD4228BF3D46BE4203F1040328BF3E465F
:1022B0009E45C4E90125E660DCD1BCF1000F00F0C9
:1022C000768103FB001240F6FF76B24241F20837F6
:1022D00028BF3246C2F20007BCF1010F47F82320A5
:1022E00000F065815A1C02FB0015B54238BF2E462E
:1022F000BCF1020F47F8226000F059819A1C02FBE2
:10230000001040F6FF71884238BF014647F822109E
:102310004DE1671AA2F11006002300BF043346F80E
:10232000100F9F42C6E90100F060F7D1002900F0CC
:102330003E81012942F8230000F0398102EB83023B
:102340000229506018BF906031E1002324E041F27F
:102350000832C2F200026B1AA2F11006002200BF7E
:10236000043246F8100F9342C6E90100F060F7D13D
:10237000134689B141F20836C2F20006012902F182
:10238000010346F8220007D046F82300931C0229D7
:102390001CBF46F82300D31C99B2A14280F00781EC
:1023A000B8F80600B8F80220CF43801A40F6FF7252
:1023B0009042B8BF0246049E22EAE270F21A12F07E
:1023C000030307EB060200F0A48041F20837C2F2D3
:1023D0000007012B01F1010647F8210040F08F8032
:1023E000314696E041F208314FEA850EA5EB000B2D
:1023F0000026C2F2000140F6FF7700BF06FB128004
:1024000006FB029420EAE07080B246F00103BC4271
:1024100028BF3C460C6041F80E0003FB128003FB12
:10242000029C20EAE07001EB0E0480B246F0020349
:10243000BC4528BFBC46C1F804C0606003FB1280E5
:1024400003FB029520EAE070BD4228BF3D4680B202
:1024500046F003038D6003FB0295A06003FB12802E
:10246000BD4220EAE07006F1040628BF3D46CD607B
:1024700080B2B34501F11001E060BFD1029F039D1E
:10248000002F00F0948006FB029040F6FF7441F2AA
:10249000083106FB1283A04228BF2046C2F2000189
:1024A00041F8260023EAE37080B27319012F41F846
:1024B00023007CD0701C00FB0293A34238BF1C4653
:1024C00000FB128341F8204023EAE3739BB22844C7
:1024D000022F41F820306AD0B01C00FB029300FBB1
:1024E000128240F6FF7722EAE272BB4238BF1F46F3
:1024F00041F8207092B2284441F8202057E047F874
:102500002600022B01F102030EBF194647F82300F3
:102510000331032A4BD3049A0123521A043A03EBE2
:10252000920313F0030721D041F20836C2F20006ED
:1025300006EB8103012F01F1040446F82100C3E9F1
:102540000100D86001D1214610E0022F01F10807F7
:1025500046F82400C3E90500D86101D1394605E0F9
:1025600046F82700C3E90900D8620C310C2A1ED3B3
:10257000049A41F20833C2F20003521A03EB8101BC
:102580003C3100BF41E90F0041E90D0041E90B007A
:1025900041E9090041E9070041E9050041E903007B
:1025A00041F8040C0860103A01F14001EAD141F20F
:1025B0000001C5F20001086840F001000860DAF887
:1025C000000020F00100CAF80000DAF80000C0079F
:1025D0000CD0DAF80000C0071CBFDAF800005FEA90
:1025E000C07003D0DAF80000C007EED1049841F2C1
:1025F0000001CAF80400DAF80000C4F2000140F05B
:102600000100CAF80000086840F00100086005B049
:10261000BDE8F08F70B54CF6CD41CCF6CC41A0FBB7
:102620000112D2084EF2100102EB820341F6D82CBF
:10263000CEF20001A0EB430E0A28C2F2000C7DD3BB
:102640009CF80030541E002B1CBF48F28043C0F29F
:102650001E0312F003054AD000204B6088600E680C
:10266000204646F001060E600E6806F00116012EA7
:102670000ED10E6806F00116012E09D10E6806F083
:102680000116012E04D10E6806F00116012EEBD0C2
:102690000E68012D26F001060E604FF000068E60D8
:1026A00049D04B608E60086840F00100086000BFB0
:1026B000086800F0011001280ED1086800F0011030
:1026C000012809D1086800F00110012804D1086828
:1026D00000F001100128EBD00868022D20F0010065
:1026E00008604FF00000886003D1901E23E0104680
:1026F00021E04B608860086840F00100086000BF7E
:10270000086800F0011001280ED1086800F00110DF
:10271000012809D1086800F00110012804D10868D7
:1027200000F001100128EBD0086820F001000860DB
:1027300000208860D01EA2B2032A30D25FEA0E4089
:1027400008BF70BD9CF800004FF47A720EFB02F2D5
:10275000002818BFC82092B250434860002088600B
:10276000086840F001000860086800F001100128C6
:102770000ED1086800F00110012809D1086800F0A6
:102780000110012804D1086800F001100128EBD0E5
:10279000086820F0010008600020886070BD0022F9
:1027A00008E000BF0C68043824F001040C60040445
:1027B0008A60C3D04B608A600C6844F001040C60EE
:1027C0000C6804F00114012C0ED10C6804F0011403
:1027D000012C09D10C6804F00114012C04D10C68FF
:1027E00004F00114012CEBD00C6824F001040C60FF
:1027F0008A604B608A600C6844F001040C6000BF82
:102800000C6804F00114012C0ED10C6804F00114C2
:10281000012C09D10C6804F00114012C04D10C68BE
:1028200004F00114012CEBD00C6824F001040C60BE
:102830008A604B608A600C6844F001040C6000BF41
:102840000C6804F00114012C0ED10C6804F0011482
:10285000012C09D10C6804F00114012C04D10C687E
:1028600004F00114012CEBD00C6824F001040C607E
:102870008A604B608A600C6844F001040C6000BF01
:102880000C6804F00114012C7FF48CAF0C6804F088
:102890000114012C7FF486AF0C6804F00114012CA4
:1028A0007FF480AF0C6804F00114012CE8D079E7C4
:1028B0009AB041F20006C4F202064FF48070306014
:1028C0000020B060F060B061306820F0807030604F
:1028D0003068800144BF30685FEA801005D53068F9
:1028E000800102D530688001F2D4F06840F448508D
:1028F000F060F06840F01000F060F06840F00060B8
:10290000F060F06840F00070F060F06840F48030F3
:10291000F060F06840F48010F060F06840F0807083
:10292000F060F06820F00300F060306840F4803020
:10293000306000BF306830B9306820B9306810B9F5
:1029400030680028F6D0F06840F00300F06030688E
:1029500040F08070306000BF306830B9306820B916
:10296000306810B930680028F6D042F20000C4F296
:102970000200016841F005010160016841F48071C5
:102980000160016841F400710160016841F48061F7
:102990000160B06820F00F00B060B06840F0030044
:1029A000B06000BFB06810F00C0F0BD1B06810F031
:1029B0000C0F07D1B06810F00C0F03D1B06810F005
:1029C0000C0FEFD04EF60850CEF200004FF0000989
:1029D000C0F80090306E40F2184A40F001003066B6
:1029E0004EF21000CEF200000168082541F004010B
:1029F000016041F6D820C2F2000001210170F06CA4
:102A0000012240F00300F06400914FF090404FF439
:102A100080710223C4F6000AC4F202050227FEF701
:102A2000E5F8AAF11804204640F201110022002323
:102A30000097FEF7DBF84FF09040082100220023BA
:102A40000097FEF7D3F8F06C102140F00300F0641B
:102A5000204601220323CDF80090FEF7C7F84FF07F
:102A600090404FF4004101220323CDF80090FEF77F
:102A7000BDF84FF6004BCFF6FF7B5AF80B0040F441
:102A800000404AF80B00DAF8000040F01000CAF8E5
:102A90000000B06C40F00500B0642868C00709D0A1
:102AA0002868C0071CBF28685FEAC07002D0286889
:102AB000C007F2D155F8040C43F20809C4F2010929
:102AC00040F0070045F8040C09F104000027A86055
:102AD0006F602F602868A84640F0100028602868C2
:102AE000282128602868022228602868032328609B
:102AF00028682860286840F480602860286840F4CE
:102B0000805028600B20C5F8F807306E43F20005AE
:102B100040F4805030662046C4F201050097FEF76D
:102B200065F8DAF80800494620F47000CAF8080091
:102B3000DAF8080040F4A000CAF80800DAF8080043
:102B400020F47040CAF80800DAF8080040F4A04009
:102B5000CAF80800DAF8000040F02800CAF80000BF
:102B6000B06B40F48040B063B06B20F48040B06341
:102B7000286840F4807028602868286059F8040CA0
:102B800040F4E06049F8040C59F8040C49F8040CCE
:102B9000286840F400702860286840F0020028602F
:102BA000286840F00100286028682860286840F004
:102BB0000400286059F8040C40F4805049F8040CD3
:102BC000D9F8000040F40060C9F8000059F8040C7E
:102BD00049F8040CD9F8140020F00100C9F81400D9
:102BE000286840F040002860FF2089F8040000BFFA
:102BF000086810F4C06F0BD1086810F4C06F07D1DB
:102C0000086810F4C06F03D1086810F4C06FEFD0EB
:102C1000086840F060000860286820F040002860E4
:102C2000286820F03800286028682860286840F06C
:102C3000400028605AF80B0040F000404AF80B00B2
:102C40006420FFF7E7FCDAF8000043F2080140F4E3
:102C50008010C4F20101CAF800001120087100BF01
:102C6000086810F4C06F0BD1086810F4C06F07D16A
:102C7000086810F4C06F03D1086810F4C06FEFD07B
:102C8000086840F060000860DAF8000040F01000CA
:102C9000CAF800007820FFF7BDFCDAF8000043F224
:102CA000080140F48010C4F20101CAF80000362087
:102CB00047460871086810F4C06F0BD1086810F41B
:102CC000C06F07D1086810F4C06F03D1086810F412
:102CD000C06FEFD0086840F060000860DAF80000CC
:102CE00040F01000CAF8000070200871086810F465
:102CF000C06F0BD1086810F4C06F07D1086810F4DA
:102D0000C06F03D1086810F4C06FEFD0086840F0BE
:102D100060000860DAF8000040F48010CAF8000093
:102D20003A200871086810F4C06F0BD1086810F4DD
:102D3000C06F07D1086810F4C06F03D1086810F4A1
:102D4000C06FEFD0086840F060000860DAF800005B
:102D500040F01000CAF8000005200871086810F45F
:102D6000C06F0BD1086810F4C06F07D1086810F469
:102D7000C06F03D1086810F4C06FEFD0086840F04E
:102D800060000860DAF8000040F48010CAF8000023
:102D9000B2200871086810F4C06F0BD1086810F4F5
:102DA000C06F07D1086810F4C06F03D1086810F431
:102DB000C06FEFD0086840F060000860DAF80000EB
:102DC00040F01000CAF800000C200871086810F4E8
:102DD000C06F0BD1086810F4C06F07D1086810F4F9
:102DE000C06F03D1086810F4C06FEFD0086840F0DE
:102DF000600008600C200871086810F4C06F0BD1E7
:102E0000086810F4C06F07D1086810F4C06F03D1D0
:102E1000086810F4C06FEFD0086840F060000860E8
:102E200000200871086810F4C06F0BD1086810F416
:102E3000C06F07D1086810F4C06F03D1086810F4A0
:102E4000C06FEFD0086840F0600008603320087160
:102E5000086810F4C06F0BD1086810F4C06F07D178
:102E6000086810F4C06F03D1086810F4C06FEFD089
:102E7000086840F06000086033200871086810F4AA
:102E8000C06F0BD1086810F4C06F07D1086810F448
:102E9000C06F03D1086810F4C06FEFD0086840F02D
:102EA00060000860DAF8000040F48010CAF8000002
:102EB000B7200871086810F4C06F0BD1086810F4CF
:102EC000C06F07D1086810F4C06F03D1086810F410
:102ED000C06FEFD0086840F060000860DAF80000CA
:102EE00040F01000CAF8000035200871086810F49E
:102EF000C06F0BD1086810F4C06F07D1086810F4D8
:102F0000C06F03D1086810F4C06FEFD0086840F0BC
:102F100060000860DAF8000040F48010CAF8000091
:102F2000BB200871086810F4C06F0BD1086810F45A
:102F3000C06F07D1086810F4C06F03D1086810F49F
:102F4000C06FEFD0086840F060000860DAF8000059
:102F500040F01000CAF800001A200871086810F448
:102F6000C06F0BD1086810F4C06F07D1086810F467
:102F7000C06F03D1086810F4C06FEFD0086840F04C
:102F800060000860DAF8000040F48010CAF8000021
:102F9000C0200871086810F4C06F0BD1086810F4E5
:102FA000C06F07D1086810F4C06F03D1086810F42F
:102FB000C06FEFD0086840F060000860DAF80000E9
:102FC00040F01000CAF800002C200871086810F4C6
:102FD000C06F0BD1086810F4C06F07D1086810F4F7
:102FE000C06F03D1086810F4C06FEFD0086840F0DC
:102FF00060000860DAF8000040F48010CAF80000B1
:10300000C2200871086810F4C06F0BD1086810F472
:10301000C06F07D1086810F4C06F03D1086810F4BE
:10302000C06FEFD0086840F060000860DAF8000078
:1030300040F01000CAF8000001200871086810F480
:10304000C06F0BD1086810F4C06F07D1086810F486
:10305000C06F03D1086810F4C06FEFD0086840F06B
:1030600060000860DAF8000040F48010CAF8000040
:10307000C3200871086810F4C06F0BD1086810F401
:10308000C06F07D1086810F4C06F03D1086810F44E
:10309000C06FEFD0086840F060000860DAF8000008
:1030A00040F01000CAF800000B200871086810F406
:1030B000C06F0BD1086810F4C06F07D1086810F416
:1030C000C06F03D1086810F4C06FEFD0086840F0FB
:1030D00060000860DAF8000040F48010CAF80000D0
:1030E000C4200871086810F4C06F0BD1086810F490
:1030F000C06F07D1086810F4C06F03D1086810F4DE
:10310000C06FEFD0086840F060000860DAF8000097
:1031100040F01000CAF8000020200871086810F480
:10312000C06F0BD1086810F4C06F07D1086810F4A5
:10313000C06F03D1086810F4C06FEFD0086840F08A
:1031400060000860DAF8000040F48010CAF800005F
:10315000C6200871086810F4C06F0BD1086810F41D
:10316000C06F07D1086810F4C06F03D1086810F46D
:10317000C06FEFD0086840F060000860DAF8000027
:1031800040F01000CAF800000F200871086810F421
:10319000C06F0BD1086810F4C06F07D1086810F435
:1031A000C06F03D1086810F4C06FEFD0086840F01A
:1031B00060000860DAF8000040F48010CAF80000EF
:1031C000D0200871086810F4C06F0BD1086810F4A3
:1031D000C06F07D1086810F4C06F03D1086810F4FD
:1031E000C06FEFD0086840F060000860DAF80000B7
:1031F00040F01000CAF80000A4200871086810F41C
:10320000C06F0BD1086810F4C06F07D1086810F4C4
:10321000C06F03D1086810F4C06FEFD0086840F0A9
:1032200060000860A1200871086810F4C06F0BD11D
:10323000086810F4C06F07D1086810F4C06F03D19C
:10324000086810F4C06FEFD0086840F060000860B4
:10325000DAF8000040F48010CAF80000212008715C
:10326000086810F4C06F0BD1086810F4C06F07D164
:10327000086810F4C06F03D1086810F4C06FEFD075
:10328000086840F060000860DAF8000040F01000C4
:10329000CAF80000DAF8000040F48010CAF8000014
:1032A000E0200871086810F4C06F0BD1086810F4B2
:1032B000C06F07D1086810F4C06F03D1086810F41C
:1032C000C06FEFD0086840F060000860DAF80000D6
:1032D00040F01000CAF80000F0200871086810F4EF
:1032E000C06F0BD1086810F4C06F07D1086810F4E4
:1032F000C06F03D1086810F4C06FEFD0086840F0C9
:103300006000086000200871086810F4C06F0BD1DD
:10331000086810F4C06F07D1086810F4C06F03D1BB
:10332000086810F4C06FEFD0086840F060000860D3
:1033300004200871086810F4C06F0BD1086810F4FD
:10334000C06F07D1086810F4C06F03D1086810F48B
:10335000C06FEFD0086840F060000860042008717A
:10336000086810F4C06F0BD1086810F4C06F07D163
:10337000086810F4C06F03D1086810F4C06FEFD074
:10338000086840F06000086004200871086810F4C4
:10339000C06F0BD1086810F4C06F07D1086810F433
:1033A000C06F03D1086810F4C06FEFD0086840F018
:1033B0006000086005200871086810F4C06F0BD128
:1033C000086810F4C06F07D1086810F4C06F03D10B
:1033D000086810F4C06FEFD0086840F06000086023
:1033E00029200871086810F4C06F0BD1086810F428
:1033F000C06F07D1086810F4C06F03D1086810F4DB
:10340000C06FEFD0086840F060000860332008719A
:10341000086810F4C06F0BD1086810F4C06F07D1B2
:10342000086810F4C06F03D1086810F4C06FEFD0C3
:10343000086840F0600008603E200871086810F4D9
:10344000C06F0BD1086810F4C06F07D1086810F482
:10345000C06F03D1086810F4C06FEFD0086840F067
:103460006000086038200871086810F4C06F0BD144
:10347000086810F4C06F07D1086810F4C06F03D15A
:10348000086810F4C06FEFD0086840F06000086072
:1034900012200871086810F4C06F0BD1086810F48E
:1034A000C06F07D1086810F4C06F03D1086810F42A
:1034B000C06FEFD0086840F060000860122008710B
:1034C000086810F4C06F0BD1086810F4C06F07D102
:1034D000086810F4C06F03D1086810F4C06FEFD013
:1034E000086840F06000086028200871086810F43F
:1034F000C06F0BD1086810F4C06F07D1086810F4D2
:10350000C06F03D1086810F4C06FEFD0086840F0B6
:103510006000086030200871086810F4C06F0BD19B
:10352000086810F4C06F07D1086810F4C06F03D1A9
:10353000086810F4C06FEFD0086840F060000860C1
:10354000DAF8000040F48010CAF80000E1200871A9
:10355000086810F4C06F0BD1086810F4C06F07D171
:10356000086810F4C06F03D1086810F4C06FEFD082
:10357000086840F060000860DAF8000040F01000D1
:10358000CAF80000F0200871086810F4C06F0BD171
:10359000086810F4C06F07D1086810F4C06F03D139
:1035A000086810F4C06FEFD0086840F06000086051
:1035B00007200871086810F4C06F0BD1086810F478
:1035C000C06F07D1086810F4C06F03D1086810F409
:1035D000C06FEFD0086840F0600008600A200871F2
:1035E000086810F4C06F0BD1086810F4C06F07D1E1
:1035F000086810F4C06F03D1086810F4C06FEFD0F2
:10360000086840F0600008600D200871086810F438
:10361000C06F0BD1086810F4C06F07D1086810F4B0
:10362000C06F03D1086810F4C06FEFD0086840F095
:10363000600008600B200871086810F4C06F0BD19F
:10364000086810F4C06F07D1086810F4C06F03D188
:10365000086810F4C06FEFD0086840F060000860A0
:1036600007200871086810F4C06F0BD1086810F4C7
:10367000C06F07D1086810F4C06F03D1086810F458
:10368000C06FEFD0086840F0600008602820087123
:10369000086810F4C06F0BD1086810F4C06F07D130
:1036A000086810F4C06F03D1086810F4C06FEFD041
:1036B000086840F06000086033200871086810F462
:1036C000C06F0BD1086810F4C06F07D1086810F400
:1036D000C06F03D1086810F4C06FEFD0086840F0E5
:1036E000600008603E200871086810F4C06F0BD1BC
:1036F000086810F4C06F07D1086810F4C06F03D1D8
:10370000086810F4C06FEFD0086840F060000860EF
:1037100036200871086810F4C06F0BD1086810F4E7
:10372000C06F07D1086810F4C06F03D1086810F4A7
:10373000C06FEFD0086840F0600008601420087186
:10374000086810F4C06F0BD1086810F4C06F07D17F
:10375000086810F4C06F03D1086810F4C06FEFD090
:10376000086840F06000086014200871086810F4D0
:10377000C06F0BD1086810F4C06F07D1086810F44F
:10378000C06F03D1086810F4C06FEFD0086840F034
:103790006000086029200871086810F4C06F0BD120
:1037A000086810F4C06F07D1086810F4C06F03D127
:1037B000086810F4C06FEFD0086840F0600008603F
:1037C00032200871086810F4C06F0BD1086810F43B
:1037D000C06F07D1086810F4C06F03D1086810F4F7
:1037E000C06FEFD0086840F060000860DAF80000B1
:1037F00040F48010CAF8000011200871086810F425
:10380000C06F0BD1086810F4C06F07D1086810F4BE
:10381000C06F03D1086810F4C06FEFD0086840F0A3
:1038200060000860DAF8000040F01000CAF80000FC
:103830007820FEF7EFFEDAF8000043F2080140F4CA
:103840008010C4F20101CAF800002920087100BFED
:10385000086810F4C06F0BD1086810F4C06F07D16E
:10386000086810F4C06F03D1086810F4C06FEFD07F
:10387000086840F2080840F060000860DAF80000CC
:10388000C5F2000840F01000CAF8000040F2100035
:10389000C2F2000000784FF6FF74FCF77FFF40F2A1
:1038A000140040F2180140F2160240F21C03C2F26A
:1038B0000000C2F20001C2F20002C2F2000300786E
:1038C000097812781B78FDF77DFF41F60830C2F2C7
:1038D00000004FF0000AA0F800A041F6DC20C2F280
:1038E00000001121018040F23C0041F6DE29C2F2C5
:1038F0000000C2F200090068A9F800104FF4167128
:10390000FCF72DFF40F24000C2F2000000684FF4C7
:103910001671FCF724FF41F6DA21C2F200014FF0E4
:10392000FF3008800020002140F23F124FF6FF7365
:10393000FDF796FAFEF78EF8FEF78CF8FEF78AF898
:10394000FEF788F801261E201E2153220023009432
:103950000196FDF7F9FB24201E2154220023CDE916
:103960000046FDF7F1FB2A201E214D220023009482
:103970000196FDF7E9FB30201E2133220023CDE91B
:103980000046FDF7E1FB36201E2132220023CDE95F
:103990000046FDF7D9FB3C201E214722002300945E
:1039A0000196FDF7D1FB42201E2134220023CDE9F0
:1039B0000046FDF7C9FB48201E2133220023009456
:1039C0000196FDF7C1FB4E201E2131220023CDE9D7
:1039D0000046FDF7B9FB54201E215F22002300940E
:1039E0000196FDF7B1FB5A201E214F2200230094BF
:1039F0000196FDF7A9FB60201E21532200230094AD
:103A00000196FDF7A1FB66201E21432200230094AE
:103A10000196FDF799FB1E202A21452200230094E0
:103A20000196FDF791FB24202A216C2200230094AB
:103A30000196FDF789FB2A202A2174220023009495
:103A40000196FDF781FB30202A2165220023009496
:103A50000196FDF779FB36202A216322002300948A
:103A60000196FDF771FB3C202A217A220023009465
:103A70000196FDF769FB1E2036214E224FF4784354
:103A8000CDE90046FDF760FB242036216F224FF47C
:103A9000784300940196FDF757FB2A2036216E22C9
:103AA0004FF4784300940196FDF74EFB3020362109
:103AB0002D224FF4784300940196FDF745FB362004
:103AC000362143224FF4784300940196FDF73CFBE6
:103AD0003C2036216F224FF4784300940196FDF785
:103AE00033FB422036216D224FF478430094019637
:103AF000FDF72AFB482036216D224FF478430094CD
:103B00000196FDF721FB4E20362165224FF47843C4
:103B100000940196FDF718FB5420362172224FF4D1
:103B2000784300940196FDF70FFB5A20362163225B
:103B30004FF4784300940196FDF706FB6020362190
:103B400069224FF4784300940196FDF7FDFA662050
:103B5000362161224FF4784300940196FDF7F4FA80
:103B60006C2036216C224FF4784300940196FDF7C7
:103B7000EBFA4FF47A70FEF74DFD41F6DA20C2F20F
:103B80000000A0F800A00020002140F23F124FF6F4
:103B9000FF73FDF765F9FDF75DFFFDF75BFFFDF7CF
:103BA00059FFFDF757FFFDF7BDFF15A80138069037
:103BB0000DF13B00013805904FF2C350C3F6A860E9
:103BC00008EE100A43F23330C3F6532009EE100A10
:103BD00006E0000141F6DC21C2F20001088000BFCE
:103BE00041F6083341F6DC20C2F20003C2F20000C5
:103BF00019880088B9F8002001319042198039D025
:103C000040F21000C2F200000078FCF7C7FD41F658
:103C1000DA20C2F20000002101800020002140F2E1
:103C20003F124FF6FF73FDF71BF9FDF713FFFDF78A
:103C300011FFFDF70FFFFDF70DFF40F2140040F2FA
:103C4000180140F2160240F21C03C2F20000C2F258
:103C50000001C2F20002C2F2000300780978127873
:103C60001B78FDF7AFFDFDF75DFF41F6DC20C2F2EA
:103C70000000008840F22201C2F2000140F210026E
:103C80000978C2F20002D2F800E04CF6CD420903F6
:103C9000CCF6CC4246F68023A1FB0212C0F600030C
:103CA00003EB8E0133F82E30498841F6FC26594348
:103CB0000023C2F20006338041F60036C2F200064D
:103CC000336041F60A36C2F20006337040F2200338
:103CD000D608C2F200031E8041F6EC230022C2F295
:103CE00000031A8041F6E423C2F200031A8041F671
:103CF000E82201EB810C41F60431C2F200024FF4DC
:103D000080530228C2F200010A961380C1F800C055
:103D100003D000F0F001202935D140F21401C2F2A5
:103D200000010978A1B146F6DC73C0F6000303EB8D
:103D3000810233F82110528851434CF20022C0F620
:103D4000EB32B2FBF1F141F6F422C2F20002116053
:103D500040F21801C2F200010978A1B146F6DC7305
:103D6000C0F6000303EB810233F82110528851435F
:103D70004CF20022C0F6EB32B2FBF1F141F6F82230
:103D8000C2F200021160A9F80000786920F0010079
:103D9000786100BF7869C0071CBF78695FEAC070AE
:103DA00005D07869C00702D07869C007F2D14FF416
:103DB0009660B861D8F8000040F00400C8F8000030
:103DC000786940F001007861B86A20F00100B862BB
:103DD000B86AC0071CBFB86A5FEAC07005D0B86A8D
:103DE000C00702D0B86AC007F2D14FF49660F862FB
:103DF000D8F800014FF6204140F00400C8F8000157
:103E0000B86ACFF6FF7140F00100B86255F80B00B8
:103E100040F0010045F80B00685840F480506850AD
:103E200057F8080CC0065CBF57F8080C5FEAC06082
:103E300008D457F8080CC00604D457F8080CC0067C
:103E4000EED500BF57F8080CC0050DD457F8080C84
:103E5000C0055CBF57F8080C5FEAC05004D457F89F
:103E6000080CC005EED500BF57F8040C4FF62041F2
:103E700040F4887047F8040C55F80B00CFF6FF713A
:103E8000013845F80B00685840F6A818A0F5805096
:103E9000685041F6F020C2F200000078C2F200083B
:103EA000002840F21E00C2F20000007840F24801F3
:103EB00041F6FC2BC2F2000108BF88460028C2F27E
:103EC000000B00F0658100244FF000094FF0000A5C
:103ED000002701280ED0B1E0390407F1010780B2B4
:103EE00006BFABF80000824681460634B4F5617F18
:103EF00000F0348108EB44010A98B1F82C6180B2DB
:103F0000864204F196021BD9B1F82E5185424FF03A
:103F1000000588BF01252BD80A9B9BB29E4227D95A
:103F20000AF59673934240F2198104F197023B041B
:103F300092B206BFABF8002092469146013717E0D7
:103F4000B1F82A5185420DD90AF596759542C0F00F
:103F500005813D0407F1010792B206BFABF80020CE
:103F600092469146B1F82E210025824288BF012554
:103F7000B1F83021824210D87DB104F198050AF5DC
:103F80009673AB42C0F0EA803B0407F10107ADB283
:103F900006BFABF80050AA46A946B1F83251854297
:103FA00013D80A9B9BB29A420FD904F199020AF5E1
:103FB00096739342C0F0D2803B0407F1010792B29E
:103FC00006BFABF8002092469146B1F834218242F8
:103FD00013D80A9B9BB29D420FD904F19A050AF5AA
:103FE0009673AB42C0F0BA803B0407F10107ADB253
:103FF00006BFABF80050AA46A946B1F83611814277
:104000003FF673AF0A9880B282427FF66EAF04F13A
:104010009B000AF596718142BFF45EAF9EE000BF3F
:10402000390407F1010780B206BFABF800008246F1
:1040300081460634B4F5617F00F0908008EB4401BE
:104040000A98B1F82C6180B2864204F196021BD224
:10405000B1F82E310025834238BF01252BD30A9BAE
:104060009BB29E4227D20AF59673934276D904F109
:1040700097023B0407F1010792B206BFABF800209C
:104080009246914617E000BFB1F82A3183420CD224
:104090000AF59673934261D33B0407F1010792B28C
:1040A00006BFABF8002092469146B1F82E210025BC
:1040B000824238BF0125B1F8306186420FD375B115
:1040C00004F198020AF59673934247D33B0407F133
:1040D000010792B206BFABF8002092469146B1F8B4
:1040E0003221824212D30A9B9BB29E420ED204F12D
:1040F00099050AF59673AB4230D33B0407F10107EB
:10410000ADB206BFABF80050AA46A946B1F834518B
:10411000854212D30A9B9BB29A420ED204F19A02B4
:104120000AF59673934219D33B0407F1010792B243
:1041300006BFABF8002092469146B1F83611814295
:10414000FFF477AF0A9880B28542BFF472AF04F1F2
:104150009B000AF596718142BFF462AFBAF1000F7D
:1041600016D046F20051C1F6CD51781EB1FBFCF1DC
:1041700080B2D14501FB00F003D0A9EB0A01B0FBEE
:10418000F1F041F60031C2F2000108600AE000BF20
:1041900041F60A314FF4967A0120C2F20001ABF8E1
:1041A00000A0087041F6E020C2F2000040F23C019D
:1041B0000078C2F2000109680C9128B1012807D1EA
:1041C0004FF480790AE000BF4FF0800906E000BF9D
:1041D0004FF4A069022808BF4FF4207908EB4A0089
:1041E000A0F5927C4FF4805B002200274FF000087E
:1041F00005E000BF0C32B2F5167F00F0CB800CEB6F
:10420000020636F8060C09FB00F0030B802B4FF07A
:10421000800338BF030B0C99C3F18B00885236F82A
:10422000065CBD4205D941F6E420C2F200002F46EB
:1042300005805D4505D241F6E820C2F20000AB469C
:10424000058036F8040C09FB00F0030B802B4FF0BF
:10425000800338BF030B0C99C3F18B0001EB020AFA
:10426000AAF8020036F8043CBB4205D941F6E42026
:10427000C2F200001F4603805B4505D241F6E820EC
:10428000C2F200009B46038036F8020C09FB00F0E6
:10429000040B802C4FF0800438BF040BC4F18B005A
:1042A000AAF8040036F8024CBC4205D941F6E420D5
:1042B000C2F20000274604805C4505D241F6E820A2
:1042C000C2F20000A34604803CF80200454409FB0A
:1042D00000F0010B80294FF0800138BF010BC1F1C4
:1042E0008B00AAF806003CF80200B84205D941F656
:1042F000E421C2F200010746088058451D4405D25A
:1043000041F6E821C2F200018346088071882C44FE
:1043100009FB01F10B0B802B4FF0800338BF0B0B17
:10432000C3F18B01AAF808107388BB4205D941F686
:10433000E421C2F200011F460B805B45204405D2F8
:1043400041F6E821C2F200019B460B80B188184477
:1043500009FB01F10C0B802C4FF0800438BF0C0BD3
:10436000C4F18B01AAF80A10B488BC4205D941F601
:10437000E421C2F2000127460C805C4500EB0408F2
:10438000BFF438AF41F6E820C2F20000A346048033
:1043900030E700BF48F2B510C1F64E30A8FB00016F
:1043A000480940F24001C2F20001D1F8008041F614
:1043B000EC21BEF1030FC2F20001088012D2BEF15F
:1043C000000F00F02681BEF1020F00F02881BEF13F
:1043D000010F40F0198205200D903C2007907820B5
:1043E00022E100BF4FF0010B0724E02507E000BFEA
:1043F0000BF1010B40F22B10834500F0058208EB16
:104400004B0018F81BA087780BF10809BA451FFA72
:1044100089F03FD2514602463B46FCF721FD43F26C
:104420000801C4F2010100220AE000BF086840F060
:10443000600008601FFA8AF00AF1010AB84267D2E8
:104440000A7100BF086810F4C06F0BD1086810F43F
:10445000C06F07D1086810F4C06F03D1086810F46A
:10446000C06FEFD0086840F0600008600A7100BFBC
:10447000086810F4C06FD9D1086810F4C06FD5D1A6
:10448000086810F4C06FD1D1086810F4C06FEFD085
:10449000CCE700BF394602465346FCF7E1FC43F245
:1044A0000801C4F20101002208E000BF086840F0E2
:1044B00060000860B8B20137504529D20A7100BFC8
:1044C000086810F4C06F0BD1086810F4C06F07D1F2
:1044D000086810F4C06F03D1086810F4C06FEFD003
:1044E000086840F0600008600A7100BF086810F4B6
:1044F000C06FDBD1086810F4C06FD7D1086810F422
:10450000C06FD3D1086810F4C06FEFD0CEE700BF02
:104510000C9901EB4B0011F81B7086781FFA89F09B
:10452000B7423BD2394602463346FCF799FC43F288
:104530000801C4F2010108E0086840F0600008606A
:10454000B8B20137B042BFF453AF0C71086810F431
:10455000C06F0BD1086810F4C06F07D1086810F461
:10456000C06F03D1086810F4C06FEFD0086840F046
:10457000600008600D7100BF086810F4C06FDBD1E7
:10458000086810F4C06FD7D1086810F4C06FD3D199
:10459000086810F4C06FEFD0CEE700BF3146024686
:1045A0003B46FCF75DFC43F20801C4F2010108E060
:1045B000086840F060000860B0B20136B842BFF44D
:1045C00017AF0C71086810F4C06F0BD1086810F4B5
:1045D000C06F07D1086810F4C06F03D1086810F4E9
:1045E000C06FEFD0086840F0600008600D7100BF38
:1045F000086810F4C06FDBD1086810F4C06FD7D121
:10460000086810F4C06FD3D1086810F4C06FEFD001
:10461000CEE70A200D901E200790872004E002209C
:104620000D90962007904B200C99002301EB400140
:1046300008EB40000991089006E000BF0B9B07982B
:104640000133834200F0E080089A0D9802EB4301A9
:1046500032F813A04988584300F1080BB1EB0A0067
:10466000014606460B9318BF4FF0FF310C9148BF2F
:10467000464200280C98C8BF01200C900D98344683
:1046800000255F464FF000084FF00009B042C8BF58
:10469000044617E018680D99AA194144B1EB0408C3
:1046A000D4BF88460137151BD8BF15460C9909F1B0
:1046B0000109C8BF8A441FFA89F18C4240F06000AA
:1046C000186035DBB8B21FFA8AF102460B46FCF7D8
:1046D000C7FB43F20803C4F201030021197100BFB4
:1046E000186810F4C06F0BD1186810F4C06F07D1B0
:1046F000186810F4C06F03D1186810F4C06FEFD0C1
:10470000186840F060001860197100BF186810F454
:10471000C06FBFD1186810F4C06FBBD1186810F417
:10472000C06FB7D1186810F4C06FEFD0B2E700BF08
:1047300009990B9A002601EB420031F8124040889B
:104740000025001B804618BF4FF0FF38824648BF47
:10475000C0F1000A0028C8BF4FF001080D98D146EB
:1047600000275045C8BF814619E000BF18680D9961
:1047700006EB0A022944B1EB090507F10107D4BF92
:104780000D460BF1010BB2EB0906B9B2D4BF1646C8
:104790004444894540F060001860FFF64FAF1FFAAF
:1047A0008BF0A1B202460B46FCF75AFB43F208031A
:1047B000C4F2010307201871186810F4C06F0BD100
:1047C000186810F4C06F07D1186810F4C06F03D1D7
:1047D000186810F4C06FEFD0186840F060001860DF
:1047E000E0201871186810F4C06FBFD1186810F479
:1047F000C06FBBD1186810F4C06FB7D1186810F43F
:10480000C06FEFD0B2E700BF41F6E020C2F2000077
:1048100000784FF6004B0028CFF6FF7B4FF0BC0826
:104820004FF0400900F0EE810024082500264FF0EB
:104830001F084FF4FC690DE00868002C40F0600090
:104840000860D4BF04F596740135B6F5967F06F17D
:10485000010633D2A8B20C2102460C23FCF700FB60
:1048600043F20801C4F2010100200871086810F445
:10487000C06F0BD1086810F4C06F07D1086810F43E
:10488000C06F03D1086810F4C06FEFD0086840F023
:104890006000086081F80480086810F4C06FCBD114
:1048A000086810F4C06FC7D1086810F4C06FC3D196
:1048B000086810F4C06FEFD0BEE700BF00240C25DD
:1048C00000260BE00868002C40F0600008600CBF78
:1048D00080340135802E06F1010633D2A9B20820BA
:1048E00008220B46FCF7BCFA43F208010020C4F290
:1048F00001010871086810F4C06F0BD1086810F44A
:10490000C06F07D1086810F4C06F03D1086810F4B5
:10491000C06FEFD0086840F06000086081F8048044
:10492000086810F4C06FCDD1086810F4C06FC9D109
:10493000086810F4C06FC5D1086810F4C06FEFD0DC
:10494000C0E700BF0024082500260DE00868002C01
:1049500040F060000860D4BF04F596740135B6F5E8
:10496000967F06F1010633D2A8B28C2102468C2331
:10497000FCF776FA43F208010020C4F20101087145
:10498000086810F4C06F0BD1086810F4C06F07D12D
:10499000086810F4C06F03D1086810F4C06FEFD03E
:1049A000086840F06000086081F80480086810F42E
:1049B000C06FCBD1086810F4C06FC7D1086810F47D
:1049C000C06FC3D1086810F4C06FEFD0BEE700BF5E
:1049D00000240C2500260F460DE000BF0868002CBF
:1049E00040F0600008600CBF80340135802E06F175
:1049F00001060F4632D2A9B24FF49A704FF49A7260
:104A00000B46FCF72DFA002239463A71086810F47B
:104A1000C06F0BD1086810F4C06F07D1086810F49C
:104A2000C06F03D1086810F4C06FEFD0086840F081
:104A30006000086081F80480086810F4C06FCDD170
:104A4000086810F4C06FC9D1086810F4C06FC5D1F0
:104A5000086810F4C06FEFD0C0E700BF00920E20CE
:104A60000021002444224FF6FF730194FCF76CFBF5
:104A70001420002153224FF6FF7300940194FCF799
:104A800063FB1A2000214F224FF6FF73009401941C
:104A9000FCF75AFB2020002120224FF6FF730094E0
:104AA0000194FCF751FB2620002142224FF6FF73B0
:104AB00000940194FCF748FB2C20002179224FF64A
:104AC000FF7300940194FCF73FFB32200021202269
:104AD0004FF6FF7300940194FCF736FB3820002159
:104AE00045224FF6FF7300940194FCF72DFB3E2006
:104AF00000216C224FF6FF7300940194FCF724FB15
:104B00004420002174224FF6FF7300940194FCF7B7
:104B10001BFB4A20002165224FF6FF73009401948D
:104B2000FCF712FB5020002163224FF6FF73009424
:104B30000194FCF709FB562000217A224FF6FF73FF
:104B400000940194FCF700FB41F60030C2F2000033
:104B5000026842F2117082421CD300EE102AB8EEB5
:104B6000400A10EE100AFBF705FE4AF6FC1246F268
:104B70004D23CDF2F122C3F65073FBF737FC0B4601
:104B800047F2A741024615A8C0F6000101F0EAFA73
:104B900007E000BF47F2944115A8C0F6000101F0FC
:104BA000E1FA9DF85410002689B1069D082400BF43
:104BB000A0B2CAB28D214FF6FF7300960196FCF7A2
:104BC000C3FAA9780634002905F10105F0D140F2B5
:104BD0001000C2F2000041F604310068C2F2000188
:104BE000D1F80080022861D0012863D0002869D163
:104BF0004CF6CD40CCF6CC40A8FB00014FEAD108E2
:104C000060E000BF0A980C2280B24009C0F1800128
:104C100052FA81F6002408250027802888BF8C26B8
:104C20000FE000BF10680137002CB9B2D4BF04F503
:104C300096740135B1F5967F40F0600010603FF644
:104C4000F3ADA8B2314602463346FCF709F943F208
:104C50000802C4F2010282F8048000BF106810F458
:104C6000C06F0BD1106810F4C06F07D1106810F43A
:104C7000C06F03D1106810F4C06FEFD0106840F01F
:104C80006000106082F80490106810F4C06FC9D101
:104C9000106810F4C06FC5D1106810F4C06FC1D196
:104CA000106810F4C06FEFD0BCE700BF4FEA58089F
:104CB00008E000BF4CF6CD40CCF6CC40A8FB00018C
:104CC0004FEA910841F6F020C2F20000007847F266
:104CD0005841421C15A8C0F6000101F043FA41F604
:104CE000DC20C2F200000088112803D14FF4FC64DC
:104CF00000220BE081284FF0000100F07F0238BF56
:104D00000121113A18BF012211434C429DF8541061
:104D100081284FF0000038BF012091B1069E40EA83
:104D200002055C27B8B2CAB2A3B28D21CDF80090BB
:104D30000195FCF709FAB1780637002906F101065A
:104D4000F0D140F2E630804506D847F27B4115A805
:104D5000C0F6000142460BE044F6D350C1F26200B7
:104D6000A8FB00018A0947F2814115A8C0F600019D
:104D700001F0F8F941F6DC20C2F2000000881228A8
:104D800004D14FF4FC6400220CE000BF81284FF0F6
:104D9000000100F07F0238BF0121123A18BF012242
:104DA00011434C429DF8541081284FF0000338BF46
:104DB0000123B9B1069F43EA02057426B0B2CAB214
:104DC000A3B28D21CDF800900195FCF7BDF9B9781B
:104DD0000636002907F10107F0D141F6DC20C2F2C6
:104DE0000000008840F21E0140F21847C2F20001A4
:104DF000C4F600070A7857F80B307F214FEA4208C3
:104E000001EB420143F480734FF4FC6A14284FF421
:104E1000FC6647F80B301BD04FF6FF76C2B141F667
:104E20000832C2F2000212884FF6FF7612F0010239
:104E30000ED041F60A32C2F2000212784FF6FF7627
:104E400032B157F80B20002642F0807247F80B2051
:104E500081284FF0000200F07F0038BF0122143893
:104E600018BF012042EA0007CAB2BC208D21334698
:104E70000025CDF800A00197FCF766F941F6DC2982
:104E8000C2F20009B9F800000022812800F07F007A
:104E900038BF0122143888F0800118BF012042EA8F
:104EA0000007CAB2C2208D213346CDF800A0019779
:104EB000FCF74AF940F22200C2F20000007800EE4E
:104EC000100AB8EE400A20EE080A10EE100AFBF7AE
:104ED00051FC0B4647F26541024615A8C0F6000199
:104EE00001F040F9B9F8000015280DD081284FF0E5
:104EF000000100F07F0238BF0121B2F1150518BF93
:104F000001252943C1F1000A9DF8541041F6DE291C
:104F100081284FF00000C2F200094FF4784838BFF2
:104F200001204FF4FC6491B1069F0543D42600BFD5
:104F3000B0B2CAB21FFA8AF38D2100940195FCF732
:104F400003F9B9780636002907F10107F0D141F6D7
:104F5000E020C2F20000007820B1012804D1022232
:104F600006E000BF012203E00A22022808BF052252
:104F700047F272410DF13B00C0F6000101F0F2F87A
:104F800041F6DC20C2F200000088132804D14FF45F
:104F9000FC64012512E000BF81284FF0000100F001
:104FA0007F0238BF0121B2F1130318BF0123194357
:104FB0004C42A2F11301B1FA81F14D09002D18BF45
:104FC0004FF4FC659DF83B1080284FF0000298BF1D
:104FD0001546D1B1059F9E264FF00008B0B2CAB267
:104FE000A3B28D210095CDF80480FCF7ADF8B97817
:104FF0000636002907F10107F0D141F6DC20C2F2A4
:105000000000008800224FF47848012856D000F0B4
:10501000F001102952D0032818BF302940F09A809F
:10502000009208209921002444224FF6FF73019436
:10503000FCF78AF80E20992141224FF6FF73009465
:105040000194FCF781F81420992143224FF6FF7355
:1050500000940194FCF778F81A20992131224FF638
:10506000FF7300940194FCF76FF8202099213A22F5
:105070004FF6FF7300940194FCF766F840F20000CD
:10508000C2F20000407A411EC8B2052847F27740BC
:10509000C0F6000006D848B246F66821C0F6000106
:1050A00051F8200041F6DC21C2F2000109883129C3
:1050B00040F00C814FF47844002213E141F6E420E3
:1050C000C2F200000488CA4600EE104AB8EE400A58
:1050D00020EE090A10EE100AFBF74CFB804641F661
:1050E000E820C2F2000006880F4600EE106AB8EE13
:1050F000400A20EE090A10EE100AFBF73BFB41F6CE
:10510000EC22C2F20002158841EC1A0B00EE105A94
:10511000B8EE400A20EE090A10EE100AFBF72AFB4F
:1051200041EC100BD946A01B00F0A2804FF47A711D
:10513000694391FBF0F046F26761C6F2666150FB8D
:1051400001F0811001EBD07064284FF0640128BF9A
:1051500008468EE0009208209921002450224FF644
:10516000FF730194FBF7F0FF0E20992157224FF6B1
:10517000FF7300940194FBF7E7FF142099214D225F
:105180004FF6FF7300940194FBF7DEFF1A2099217C
:1051900031224FF6FF7300940194FBF7D5FF2020D6
:1051A00099213A224FF6FF7300940194FBF7CCFF4C
:1051B0002620992120224FF6FF7300940194FBF7DB
:1051C000C3FF2C20992120224FF6FF7300940194F5
:1051D000FBF7BAFF3220992120224FF6FF7300948B
:1051E0000194FBF7B1FF3820992120224FF6FF737D
:1051F00000940194FBF7A8FF3E20992120224FF64E
:10520000FF7300940194FBF79FFF44209921202213
:105210004FF6FF7300940194FBF796FF4A20992103
:105220007C224FF6FF7300940194FBF78DFF40F250
:105230001400C2F200000078002800F0A58041F6BA
:10524000F420C2F20000026844F23F20C0F20F00D6
:10525000824240F2A5804DF68360C4F21B30A2FB6F
:1052600000018A0C47F2B64115A8C0F6000118E209
:10527000002047F2294104900DF13B00C0F60001E7
:1052800042463B468DED00AB8DED020B00F06AFF10
:105290009DF83B1040F208080029C5F200084FF0C5
:1052A000000600F0B083059D082400BFA0B2CAB27A
:1052B00099214FF6FF7300960196FBF745FFA978F9
:1052C0000634002905F10105F0D19CE381294FF056
:1052D000000301F07F0238BF0123313A18BF0122D9
:1052E00013435C42812901784FF0000338BF01234A
:1052F00099B143EA0205461E262700BFB8B2CAB2DA
:10530000A3B29921CDF800800195FBF71DFFB1787C
:105310000637002906F10106F0D140F20000C2F282
:105320000000007846F68E72C0F6000202EB8001A3
:1053300032F82000498848434CF20021C0F6EB3196
:10534000B1FBF0F2C8280CD84DF68360C4F21B30D4
:10535000A2FB00018A0C47F2B64115A8C0F6000175
:1053600034E040F64051C0F20301884229D844F6A7
:10537000D350C1F26200A2FB00018A0947F2A041AA
:1053800015A8C0F6000121E042F22000C0F2200082
:10539000CDF8570044F24F60C2F24600159082E10A
:1053A000B2F57A7FC0F0788144F6D350C1F2620042
:1053B000A2FB00018A0947F2A04115A8C0F600012E
:1053C0006FE147F28D4115A8C0F6000100F0CAFE5A
:1053D00041F6DC20C2F200000088322803D14FF4ED
:1053E000784400220BE081284FF0000100F07F029A
:1053F00038BF0121323A18BF012211434C429DF8B7
:10540000541081284FF0000038BF012099B1069F49
:1054100040EA0205442600BFB0B2CAB2A3B2992145
:10542000CDF800800195FBF78FFEB978063600298C
:1054300007F10107F0D140F20000C2F2000040780D
:1054400046F67C71C0F6000131F8102047F2874122
:1054500015A8C0F6000100F085FE41F6DC20C2F27E
:1054600000000088332803D14FF4784400220BE079
:1054700081284FF0000100F07F0238BF0121333A4C
:1054800018BF012211434C429DF8541081284FF05F
:10549000000038BF012091B1069F40EA020568264E
:1054A000B0B2CAB2A3B29921CDF800800195FBF742
:1054B0004BFEB9780636002907F10107F0D1002428
:1054C0009820992156224FF6FF7300940194FBF720
:1054D0003BFE9E20992170224FF6FF7300940194A9
:1054E000FBF732FEA420992170224FF6FF7300943F
:1054F0000194FBF729FEAA2099213A224FF6FF7367
:1055000000940194FBF720FE40F20000C2F200007C
:10551000007946F6C671C0F6000131F8100000EEC1
:10552000100AB8EE400A20EE090A10EE100AFBF746
:1055300021F90B4647F25E41024615A8C0F600016C
:1055400000F010FE41F6DC20C2F200000088342892
:1055500002D14FF478450CE081284FF0000100F0B3
:105560007F0238BF0121B2F1340418BF0124214366
:105570004D429DF8541081284FF0000038BF0120A3
:1055800089B1069F0443B026B0B2CAB2ABB299212A
:10559000CDF800800194FBF7D7FDB97806360029D5
:1055A00007F10107F0D10024D420992156224FF6AB
:1055B000FF7300940194FBF7C7FDDA209921642260
:1055C0004FF6FF7300940194FBF7BEFDE020992194
:1055D00063224FF6FF7300940194FBF7B5FDE620BC
:1055E00099213A224FF6FF7300940194FBF7ACFD2A
:1055F00040F20000C2F20000007A46F6C671C0F622
:10560000000131F8100000EE100AB8EE400A20EE5A
:10561000090A10EE100AFBF7ADF80B4647F25E419F
:10562000024615A8C0F6000100F09CFD41F6DC2002
:10563000C2F200000088CA46352802D14FF47845EE
:105640000CE081284FF0000100F07F0238BF0121FB
:10565000B2F1350418BF012421434D429DF8541086
:1056600081284FF00000D94638BF0120002900F002
:10567000C681069F0443EC26B0B2CAB2ABB29921F0
:10568000CDF800800194FBF75FFDB978063600295C
:1056900007F10107F0D1B2E147F28D4115A8C0F63C
:1056A000000100F05FFD41F6DC20C2F2000000883E
:1056B0004FF01F08212802D11F2400220BE081286F
:1056C0004FF0000100F07F0238BF0121213A18BFDE
:1056D000012211434C429DF8541081284FF00000E4
:1056E00038BF012099B1069F40EA0205262600BF77
:1056F000B0B2CAB2A3B29921CDF800800195FBF7F0
:1057000023FDB9780636002907F10107F0D140F2F0
:105710001400C2F200000078002840D040F21600C9
:10572000C2F20000007847F2234100EB8000420003
:1057300015A8C0F6000100F015FD41F6DC20C2F20C
:1057400000000088222802D11F2400220BE08128BB
:105750004FF0000100F07F0238BF0121223A18BF4C
:10576000012211434C429DF8541081284FF0000053
:1057700038BF012099B1069F40EA0205502600BFBC
:10578000B0B2CAB2A3B29921CDF800800195FBF75F
:10579000DBFCB9780636002907F10107F0D10024B7
:1057A0006E20992150224FF6FF7300940194FBF76D
:1057B000CBFC7420992157224FF6FF73009401947B
:1057C000FBF7C2FC7A2099214D224FF6FF7300941B
:1057D0000194FBF7B9FC8020992132224FF6FF7328
:1057E00000940194FBF7B0FC862099213A224FF6F1
:1057F000FF7300940194FBF7A7FC8C2099212022D1
:105800004FF6FF7300940194FBF79EFC92209921C0
:1058100020224FF6FF7300940194FBF795FC98202B
:10582000992120224FF6FF7300940194FBF78CFC22
:105830009E20992120224FF6FF7300940194FBF7DC
:1058400083FCA420992120224FF6FF730094019439
:10585000FBF77AFCAA20992120224FF6FF730094CF
:105860000194FBF771FCB02099217C224FF6FF7365
:1058700000940194FBF768FC40F21800C2F20000AB
:105880000078B8B141F6F820C2F20000026844F294
:105890003F20C0F20F00824218D94DF68360C4F257
:1058A0001B30A2FB00018A0C47F2B64115A8C0F6D6
:1058B000000120E042F22000C0F22000CDF85700A5
:1058C00044F24F60C2F24600159016E0B2F57A7FBE
:1058D0000CD344F6D350C1F26200A2FB00018A0946
:1058E00047F2A04115A8C0F6000104E047F28D413F
:1058F00015A8C0F6000100F035FC41F6DC20C2F22C
:1059000000000088232802D11F2400220BE08128F8
:105910004FF0000100F07F0238BF0121233A18BF89
:10592000012211434C429DF8541081284FF0000091
:1059300038BF012099B1069F40EA02058C2600BFBE
:10594000B0B2CAB2A3B29921CDF800800195FBF79D
:10595000FBFBB9780636002907F10107F0D147F2C1
:105960001E4115A8C0F6000100F0FCFB40F2180033
:10597000C2F20000007800283FD040F21C00C2F2C2
:105980000000007847F2234100EB8000420015A898
:10599000C0F6000100F0E6FB41F6DC20C2F2000098
:1059A0000088242802D11F2400220BE081284FF018
:1059B000000100F07F0238BF0121243A18BF012204
:1059C00011434C429DF8541081284FF0000038BF1D
:1059D000012091B1069F40EA0205B626B0B2CAB2D4
:1059E000A3B29921CDF800800195FBF7ADFBB97802
:1059F0000636002907F10107F0D1CA46D94640F220
:105A00000808C5F2000841F6DC25C2F20005288826
:105A10004FF4FC6700F0F00110390C461CBF012464
:105A20004FF0FF31012808BF4FF4FC618EB2C8204F
:105A300000214F22334600970194FBF785FBCE20CF
:105A400000215322334600970194FBF77DFBD420BD
:105A500000214322334600970194FBF775FB288809
:105A60004FF01F0B00F0F00120390C461CBF012441
:105A70004FF0FF31022808BF1F218EB2E020002125
:105A800050223346CDF800B00194FBF75DFBE620D1
:105A9000002157223346CDF800B00194FBF754FBA8
:105AA000EC2000214D223346CDF800B00194FBF7E5
:105AB0004BFB28884FF4784500F0F00130390C4654
:105AC0001CBF01244FF0FF31032804BF4FF6000133
:105AD000CFF6FF718EB2F8200021442233460095A4
